{
  "_format": "hh-sol-artifact-1",
  "contractName": "CredentialVerification",
  "sourceName": "contracts/CredentialVerification.sol",
  "abi": [
    {
      "inputs": [],
      "stateMutability": "nonpayable",
      "type": "constructor"
    },
    {
      "inputs": [],
      "name": "AccessControlBadConfirmation",
      "type": "error"
    },
    {
      "inputs": [
        {
          "internalType": "address",
          "name": "account",
          "type": "address"
        },
        {
          "internalType": "bytes32",
          "name": "neededRole",
          "type": "bytes32"
        }
      ],
      "name": "AccessControlUnauthorizedAccount",
      "type": "error"
    },
    {
      "anonymous": false,
      "inputs": [
        {
          "indexed": true,
          "internalType": "string",
          "name": "credentialId",
          "type": "string"
        },
        {
          "indexed": false,
          "internalType": "string",
          "name": "studentId",
          "type": "string"
        },
        {
          "indexed": true,
          "internalType": "address",
          "name": "issuedBy",
          "type": "address"
        }
      ],
      "name": "CredentialIssued",
      "type": "event"
    },
    {
      "anonymous": false,
      "inputs": [
        {
          "indexed": true,
          "internalType": "string",
          "name": "credentialId",
          "type": "string"
        },
        {
          "indexed": true,
          "internalType": "address",
          "name": "revokedBy",
          "type": "address"
        }
      ],
      "name": "CredentialRevoked",
      "type": "event"
    },
    {
      "anonymous": false,
      "inputs": [
        {
          "indexed": true,
          "internalType": "bytes32",
          "name": "role",
          "type": "bytes32"
        },
        {
          "indexed": true,
          "internalType": "bytes32",
          "name": "previousAdminRole",
          "type": "bytes32"
        },
        {
          "indexed": true,
          "internalType": "bytes32",
          "name": "newAdminRole",
          "type": "bytes32"
        }
      ],
      "name": "RoleAdminChanged",
      "type": "event"
    },
    {
      "anonymous": false,
      "inputs": [
        {
          "indexed": true,
          "internalType": "bytes32",
          "name": "role",
          "type": "bytes32"
        },
        {
          "indexed": true,
          "internalType": "address",
          "name": "account",
          "type": "address"
        },
        {
          "indexed": true,
          "internalType": "address",
          "name": "sender",
          "type": "address"
        }
      ],
      "name": "RoleGranted",
      "type": "event"
    },
    {
      "anonymous": false,
      "inputs": [
        {
          "indexed": true,
          "internalType": "bytes32",
          "name": "role",
          "type": "bytes32"
        },
        {
          "indexed": true,
          "internalType": "address",
          "name": "account",
          "type": "address"
        },
        {
          "indexed": true,
          "internalType": "address",
          "name": "sender",
          "type": "address"
        }
      ],
      "name": "RoleRevoked",
      "type": "event"
    },
    {
      "inputs": [],
      "name": "DEFAULT_ADMIN_ROLE",
      "outputs": [
        {
          "internalType": "bytes32",
          "name": "",
          "type": "bytes32"
        }
      ],
      "stateMutability": "view",
      "type": "function"
    },
    {
      "inputs": [],
      "name": "ISSUER_ROLE",
      "outputs": [
        {
          "internalType": "bytes32",
          "name": "",
          "type": "bytes32"
        }
      ],
      "stateMutability": "view",
      "type": "function"
    },
    {
      "inputs": [
        {
          "internalType": "address",
          "name": "issuer",
          "type": "address"
        }
      ],
      "name": "addIssuer",
      "outputs": [],
      "stateMutability": "nonpayable",
      "type": "function"
    },
    {
      "inputs": [
        {
          "internalType": "bytes32",
          "name": "role",
          "type": "bytes32"
        }
      ],
      "name": "getRoleAdmin",
      "outputs": [
        {
          "internalType": "bytes32",
          "name": "",
          "type": "bytes32"
        }
      ],
      "stateMutability": "view",
      "type": "function"
    },
    {
      "inputs": [
        {
          "internalType": "string",
          "name": "_studentId",
          "type": "string"
        }
      ],
      "name": "getStudentCredentials",
      "outputs": [
        {
          "internalType": "string[]",
          "name": "",
          "type": "string[]"
        }
      ],
      "stateMutability": "view",
      "type": "function"
    },
    {
      "inputs": [],
      "name": "getTotalCredentials",
      "outputs": [
        {
          "internalType": "uint256",
          "name": "",
          "type": "uint256"
        }
      ],
      "stateMutability": "view",
      "type": "function"
    },
    {
      "inputs": [
        {
          "internalType": "bytes32",
          "name": "role",
          "type": "bytes32"
        },
        {
          "internalType": "address",
          "name": "account",
          "type": "address"
        }
      ],
      "name": "grantRole",
      "outputs": [],
      "stateMutability": "nonpayable",
      "type": "function"
    },
    {
      "inputs": [
        {
          "internalType": "bytes32",
          "name": "role",
          "type": "bytes32"
        },
        {
          "internalType": "address",
          "name": "account",
          "type": "address"
        }
      ],
      "name": "hasRole",
      "outputs": [
        {
          "internalType": "bool",
          "name": "",
          "type": "bool"
        }
      ],
      "stateMutability": "view",
      "type": "function"
    },
    {
      "inputs": [
        {
          "internalType": "string",
          "name": "_credentialId",
          "type": "string"
        },
        {
          "internalType": "string",
          "name": "_studentName",
          "type": "string"
        },
        {
          "internalType": "string",
          "name": "_studentId",
          "type": "string"
        },
        {
          "internalType": "string",
          "name": "_degree",
          "type": "string"
        },
        {
          "internalType": "string",
          "name": "_institution",
          "type": "string"
        },
        {
          "internalType": "string",
          "name": "_ipfsHash",
          "type": "string"
        },
        {
          "internalType": "uint256",
          "name": "_issueDate",
          "type": "uint256"
        },
        {
          "internalType": "uint256",
          "name": "_expiryDate",
          "type": "uint256"
        }
      ],
      "name": "issueCredential",
      "outputs": [],
      "stateMutability": "nonpayable",
      "type": "function"
    },
    {
      "inputs": [
        {
          "internalType": "bytes32",
          "name": "role",
          "type": "bytes32"
        },
        {
          "internalType": "address",
          "name": "callerConfirmation",
          "type": "address"
        }
      ],
      "name": "renounceRole",
      "outputs": [],
      "stateMutability": "nonpayable",
      "type": "function"
    },
    {
      "inputs": [
        {
          "internalType": "string",
          "name": "_credentialId",
          "type": "string"
        }
      ],
      "name": "revokeCredential",
      "outputs": [],
      "stateMutability": "nonpayable",
      "type": "function"
    },
    {
      "inputs": [
        {
          "internalType": "bytes32",
          "name": "role",
          "type": "bytes32"
        },
        {
          "internalType": "address",
          "name": "account",
          "type": "address"
        }
      ],
      "name": "revokeRole",
      "outputs": [],
      "stateMutability": "nonpayable",
      "type": "function"
    },
    {
      "inputs": [
        {
          "internalType": "bytes4",
          "name": "interfaceId",
          "type": "bytes4"
        }
      ],
      "name": "supportsInterface",
      "outputs": [
        {
          "internalType": "bool",
          "name": "",
          "type": "bool"
        }
      ],
      "stateMutability": "view",
      "type": "function"
    },
    {
      "inputs": [
        {
          "internalType": "string",
          "name": "_credentialId",
          "type": "string"
        }
      ],
      "name": "verifyCredential",
      "outputs": [
        {
          "components": [
            {
              "internalType": "string",
              "name": "credentialId",
              "type": "string"
            },
            {
              "internalType": "string",
              "name": "studentName",
              "type": "string"
            },
            {
              "internalType": "string",
              "name": "studentId",
              "type": "string"
            },
            {
              "internalType": "string",
              "name": "degree",
              "type": "string"
            },
            {
              "internalType": "string",
              "name": "institution",
              "type": "string"
            },
            {
              "internalType": "string",
              "name": "ipfsHash",
              "type": "string"
            },
            {
              "internalType": "uint256",
              "name": "issueDate",
              "type": "uint256"
            },
            {
              "internalType": "uint256",
              "name": "expiryDate",
              "type": "uint256"
            },
            {
              "internalType": "address",
              "name": "issuedBy",
              "type": "address"
            },
            {
              "internalType": "bool",
              "name": "isRevoked",
              "type": "bool"
            }
          ],
          "internalType": "struct CredentialVerification.Credential",
          "name": "",
          "type": "tuple"
        },
        {
          "internalType": "bool",
          "name": "isValid",
          "type": "bool"
        }
      ],
      "stateMutability": "view",
      "type": "function"
    }
  ],
  "bytecode": "0x608060405234801561001057600080fd5b5061001c60003361004d565b506100477f114e74f6ea3bd819998f78687bfcb11b140da08e9b7d222fa9c1f1ba1f2aa1223361004d565b506100f9565b6000828152602081815260408083206001600160a01b038516845290915281205460ff166100ef576000838152602081815260408083206001600160a01b03861684529091529020805460ff191660011790556100a73390565b6001600160a01b0316826001600160a01b0316847f2f8788117e7eff1d82e926ec794901d17c78024a50270940304540a733656f0d60405160405180910390a45060016100f3565b5060005b92915050565b611449806101086000396000f3fe608060405234801561001057600080fd5b50600436106100ea5760003560e01c806382aefa241161008c578063bb3670ab11610066578063bb3670ab146101e6578063c20b05ec14610207578063d547741f1461021a578063f1470a351461022d57600080fd5b806382aefa24146101b657806391d14854146101cb578063a217fddf146101de57600080fd5b80632f2ff15d116100c85780632f2ff15d1461015d57806336568abe146101705780635e9a2d28146101835780637519322b1461019657600080fd5b806301ffc9a7146100ef57806320694db014610117578063248a9ca31461012c575b600080fd5b6101026100fd366004610dfb565b610235565b60405190151581526020015b60405180910390f35b61012a610125366004610e48565b61026c565b005b61014f61013a366004610e63565b60009081526020819052604090206001015490565b60405190815260200161010e565b61012a61016b366004610e7c565b610293565b61012a61017e366004610e7c565b6102be565b61012a610191366004610f4b565b6102f6565b6101a96101a4366004610f4b565b61047a565b60405161010e9190610fd8565b61014f6000805160206113f483398151915281565b6101026101d9366004610e7c565b610571565b61014f600081565b6101f96101f4366004610f4b565b61059a565b60405161010e92919061103a565b61012a61021536600461114b565b610a1c565b61012a610228366004610e7c565b610c93565b60035461014f565b60006001600160e01b03198216637965db0b60e01b148061026657506301ffc9a760e01b6001600160e01b03198316145b92915050565b600061027781610cb8565b61028f6000805160206113f483398151915283610293565b5050565b6000828152602081905260409020600101546102ae81610cb8565b6102b88383610cc5565b50505050565b6001600160a01b03811633146102e75760405163334bd91960e11b815260040160405180910390fd5b6102f18282610d57565b505050565b6000805160206113f483398151915261030e81610cb8565b60006001836040516103209190611255565b908152604051908190036020019020805461033a90611271565b90501161038e5760405162461bcd60e51b815260206004820152601960248201527f43726564656e7469616c20646f6573206e6f742065786973740000000000000060448201526064015b60405180910390fd5b60018260405161039e9190611255565b9081526040519081900360200190206008015460ff600160a01b90910416156103fb5760405162461bcd60e51b815260206004820152600f60248201526e105b1c9958591e481c995d9bdad959608a1b6044820152606401610385565b6001808360405161040c9190611255565b9081526040519081900360200181206008018054921515600160a01b0260ff60a01b19909316929092179091553390610446908490611255565b604051908190038120907fe3a44cd24b5654f180d349459057b74531347881129f16c87a504ed4e6df282b90600090a35050565b606060028260405161048c9190611255565b9081526020016040518091039020805480602002602001604051908101604052809291908181526020016000905b828210156105665783829060005260206000200180546104d990611271565b80601f016020809104026020016040519081016040528092919081815260200182805461050590611271565b80156105525780601f1061052757610100808354040283529160200191610552565b820191906000526020600020905b81548152906001019060200180831161053557829003601f168201915b5050505050815260200190600101906104ba565b505050509050919050565b6000918252602082815260408084206001600160a01b0393909316845291905290205460ff1690565b6105fb604051806101400160405280606081526020016060815260200160608152602001606081526020016060815260200160608152602001600081526020016000815260200160006001600160a01b031681526020016000151581525090565b60008060018460405161060e9190611255565b90815260200160405180910390206040518061014001604052908160008201805461063890611271565b80601f016020809104026020016040519081016040528092919081815260200182805461066490611271565b80156106b15780601f10610686576101008083540402835291602001916106b1565b820191906000526020600020905b81548152906001019060200180831161069457829003601f168201915b505050505081526020016001820180546106ca90611271565b80601f01602080910402602001604051908101604052809291908181526020018280546106f690611271565b80156107435780601f1061071857610100808354040283529160200191610743565b820191906000526020600020905b81548152906001019060200180831161072657829003601f168201915b5050505050815260200160028201805461075c90611271565b80601f016020809104026020016040519081016040528092919081815260200182805461078890611271565b80156107d55780601f106107aa576101008083540402835291602001916107d5565b820191906000526020600020905b8154815290600101906020018083116107b857829003601f168201915b505050505081526020016003820180546107ee90611271565b80601f016020809104026020016040519081016040528092919081815260200182805461081a90611271565b80156108675780601f1061083c57610100808354040283529160200191610867565b820191906000526020600020905b81548152906001019060200180831161084a57829003601f168201915b5050505050815260200160048201805461088090611271565b80601f01602080910402602001604051908101604052809291908181526020018280546108ac90611271565b80156108f95780601f106108ce576101008083540402835291602001916108f9565b820191906000526020600020905b8154815290600101906020018083116108dc57829003601f168201915b5050505050815260200160058201805461091290611271565b80601f016020809104026020016040519081016040528092919081815260200182805461093e90611271565b801561098b5780601f106109605761010080835404028352916020019161098b565b820191906000526020600020905b81548152906001019060200180831161096e57829003601f168201915b505050918352505060068201546020820152600782015460408201526008909101546001600160a01b0381166060830152600160a01b900460ff16151560809091015280515160e0820151919250151590600090158015906109f057508260e0015142115b90506000828015610a045750836101200151155b8015610a0e575081155b939793965092945050505050565b6000805160206113f4833981519152610a3481610cb8565b600189604051610a449190611255565b9081526040519081900360200190208054610a5e90611271565b159050610aad5760405162461bcd60e51b815260206004820152601960248201527f43726564656e7469616c20616c726561647920657869737473000000000000006044820152606401610385565b6040518061014001604052808a8152602001898152602001888152602001878152602001868152602001858152602001848152602001838152602001336001600160a01b031681526020016000151581525060018a604051610b0f9190611255565b90815260405190819003602001902081518190610b2c90826112f9565b5060208201516001820190610b4190826112f9565b5060408201516002820190610b5690826112f9565b5060608201516003820190610b6b90826112f9565b5060808201516004820190610b8090826112f9565b5060a08201516005820190610b9590826112f9565b5060c0820151600682015560e0820151600782015561010082015160089091018054610120909301511515600160a01b026001600160a81b03199093166001600160a01b0390921691909117919091179055604051600290610bf8908990611255565b908152604051602091819003820190208054600181018255600091825291902001610c238a826112f9565b5060038054906000610c34836113b9565b90915550506040513390610c49908b90611255565b60405180910390207fbced6383e2dd56a440d8755db8d2520393bede4e079e12a544d29aa06517471189604051610c8091906113e0565b60405180910390a3505050505050505050565b600082815260208190526040902060010154610cae81610cb8565b6102b88383610d57565b610cc28133610dc2565b50565b6000610cd18383610571565b610d4f576000838152602081815260408083206001600160a01b03861684529091529020805460ff19166001179055610d073390565b6001600160a01b0316826001600160a01b0316847f2f8788117e7eff1d82e926ec794901d17c78024a50270940304540a733656f0d60405160405180910390a4506001610266565b506000610266565b6000610d638383610571565b15610d4f576000838152602081815260408083206001600160a01b0386168085529252808320805460ff1916905551339286917ff6391f5c32d9c69d2a47ea670b442974b53935d1edc7fd64eb21e047a839171b9190a4506001610266565b610dcc8282610571565b61028f5760405163e2517d3f60e01b81526001600160a01b038216600482015260248101839052604401610385565b600060208284031215610e0d57600080fd5b81356001600160e01b031981168114610e2557600080fd5b9392505050565b80356001600160a01b0381168114610e4357600080fd5b919050565b600060208284031215610e5a57600080fd5b610e2582610e2c565b600060208284031215610e7557600080fd5b5035919050565b60008060408385031215610e8f57600080fd5b82359150610e9f60208401610e2c565b90509250929050565b634e487b7160e01b600052604160045260246000fd5b600082601f830112610ecf57600080fd5b813567ffffffffffffffff80821115610eea57610eea610ea8565b604051601f8301601f19908116603f01168101908282118183101715610f1257610f12610ea8565b81604052838152866020858801011115610f2b57600080fd5b836020870160208301376000602085830101528094505050505092915050565b600060208284031215610f5d57600080fd5b813567ffffffffffffffff811115610f7457600080fd5b610f8084828501610ebe565b949350505050565b60005b83811015610fa3578181015183820152602001610f8b565b50506000910152565b60008151808452610fc4816020860160208601610f88565b601f01601f19169290920160200192915050565b6000602080830181845280855180835260408601915060408160051b870101925083870160005b8281101561102d57603f1988860301845261101b858351610fac565b94509285019290850190600101610fff565b5092979650505050505050565b6040815260008351610140806040850152611059610180850183610fac565b91506020860151603f19808685030160608701526110778483610fac565b935060408801519150808685030160808701526110948483610fac565b935060608801519150808685030160a08701526110b18483610fac565b935060808801519150808685030160c08701526110ce8483610fac565b935060a08801519150808685030160e0870152506110ec8382610fac565b92505060c0860151610100818187015260e088015191506101208281880152818901519250611125848801846001600160a01b03169052565b880151801515610160880152925061113b915050565b5083151560208401529050610e25565b600080600080600080600080610100898b03121561116857600080fd5b883567ffffffffffffffff8082111561118057600080fd5b61118c8c838d01610ebe565b995060208b01359150808211156111a257600080fd5b6111ae8c838d01610ebe565b985060408b01359150808211156111c457600080fd5b6111d08c838d01610ebe565b975060608b01359150808211156111e657600080fd5b6111f28c838d01610ebe565b965060808b013591508082111561120857600080fd5b6112148c838d01610ebe565b955060a08b013591508082111561122a57600080fd5b506112378b828c01610ebe565b93505060c0890135915060e089013590509295985092959890939650565b60008251611267818460208701610f88565b9190910192915050565b600181811c9082168061128557607f821691505b6020821081036112a557634e487b7160e01b600052602260045260246000fd5b50919050565b601f8211156102f157600081815260208120601f850160051c810160208610156112d25750805b601f850160051c820191505b818110156112f1578281556001016112de565b505050505050565b815167ffffffffffffffff81111561131357611313610ea8565b611327816113218454611271565b846112ab565b602080601f83116001811461135c57600084156113445750858301515b600019600386901b1c1916600185901b1785556112f1565b600085815260208120601f198616915b8281101561138b5788860151825594840194600190910190840161136c565b50858210156113a95787850151600019600388901b60f8161c191681555b5050505050600190811b01905550565b6000600182016113d957634e487b7160e01b600052601160045260246000fd5b5060010190565b602081526000610e256020830184610fac56fe114e74f6ea3bd819998f78687bfcb11b140da08e9b7d222fa9c1f1ba1f2aa122a2646970667358221220fa72c08c3f970a0c5a715d2222d94471f5e0b45249748df6fe2ee549a15dfb6564736f6c63430008140033",
  "linkReferences": {},
  "deployedLinkReferences": {}
}